{
  "contractName": "OPCode",
  "abi": [
    {
      "constant": true,
      "inputs": [],
      "name": "extCodeSize",
      "outputs": [
        {
          "name": "",
          "type": "uint256"
        }
      ],
      "payable": false,
      "stateMutability": "view",
      "type": "function"
    },
    {
      "constant": true,
      "inputs": [],
      "name": "codeSize",
      "outputs": [
        {
          "name": "",
          "type": "uint256"
        }
      ],
      "payable": false,
      "stateMutability": "pure",
      "type": "function"
    }
  ],
  "bytecode": "0x608060405234801561001057600080fd5b5060e38061001f6000396000f3006080604052600436106049576000357c0100000000000000000000000000000000000000000000000000000000900463ffffffff1680630434a44d14604e5780634e0f46c9146076575b600080fd5b348015605957600080fd5b506060609e565b6040518082815260200191505060405180910390f35b348015608157600080fd5b50608860a8565b6040518082815260200191505060405180910390f35b6000808091505090565b60008060003b905080915050905600a165627a7a723058200e432de7ee702d6f2b6929d2581161939b1f48579498ed8dcb2808a6cb4d32530029",
  "source": "pragma solidity 0.4.24;\n\ncontract OPCode {\n\n    function extCodeSize() public view returns (uint256) {\n        uint256 size;\n        assembly { size := extcodesize(0x0) }\n        return size;\n    }\n\n    function codeSize() public pure returns (uint256) {\n        uint256 size;\n        // assembly { size := codesize(0x0)}\n        return size;\n    }\n}",
  "sourcePath": "/Users/lumingwang/Projects/tricks/solidity/library/contracts/OPCode.sol",
  "compiler": {
    "name": "solc",
    "version": "0.4.24+commit.e67f0147.Emscripten.clang"
  },
  "schemaVersion": "2.0.1",
  "updatedAt": "2018-07-31T02:43:10.296Z"
}